{
  "_format": "hh-sol-artifact-1",
  "contractName": "BobbyOrrDrop",
  "sourceName": "contracts/drop/BobbyOrrDrop.sol",
  "abi": [
    {
      "anonymous": false,
      "inputs": [
        {
          "indexed": false,
          "internalType": "address",
          "name": "previousAdmin",
          "type": "address"
        },
        {
          "indexed": false,
          "internalType": "address",
          "name": "newAdmin",
          "type": "address"
        }
      ],
      "name": "AdminChanged",
      "type": "event"
    },
    {
      "anonymous": false,
      "inputs": [
        {
          "indexed": true,
          "internalType": "address",
          "name": "owner",
          "type": "address"
        },
        {
          "indexed": true,
          "internalType": "address",
          "name": "approved",
          "type": "address"
        },
        {
          "indexed": true,
          "internalType": "uint256",
          "name": "tokenId",
          "type": "uint256"
        }
      ],
      "name": "Approval",
      "type": "event"
    },
    {
      "anonymous": false,
      "inputs": [
        {
          "indexed": true,
          "internalType": "address",
          "name": "owner",
          "type": "address"
        },
        {
          "indexed": true,
          "internalType": "address",
          "name": "operator",
          "type": "address"
        },
        {
          "indexed": false,
          "internalType": "bool",
          "name": "approved",
          "type": "bool"
        }
      ],
      "name": "ApprovalForAll",
      "type": "event"
    },
    {
      "anonymous": false,
      "inputs": [
        {
          "indexed": false,
          "internalType": "string",
          "name": "_uri",
          "type": "string"
        }
      ],
      "name": "BaseURIChanged",
      "type": "event"
    },
    {
      "anonymous": false,
      "inputs": [
        {
          "indexed": true,
          "internalType": "address",
          "name": "beacon",
          "type": "address"
        }
      ],
      "name": "BeaconUpgraded",
      "type": "event"
    },
    {
      "anonymous": false,
      "inputs": [
        {
          "indexed": false,
          "internalType": "uint8",
          "name": "version",
          "type": "uint8"
        }
      ],
      "name": "Initialized",
      "type": "event"
    },
    {
      "anonymous": false,
      "inputs": [
        {
          "indexed": true,
          "internalType": "address",
          "name": "_to",
          "type": "address"
        },
        {
          "indexed": false,
          "internalType": "uint256",
          "name": "_userId",
          "type": "uint256"
        },
        {
          "indexed": false,
          "internalType": "uint256",
          "name": "_tokenId",
          "type": "uint256"
        }
      ],
      "name": "Minted",
      "type": "event"
    },
    {
      "anonymous": false,
      "inputs": [
        {
          "indexed": true,
          "internalType": "address",
          "name": "previousOwner",
          "type": "address"
        },
        {
          "indexed": true,
          "internalType": "address",
          "name": "newOwner",
          "type": "address"
        }
      ],
      "name": "OwnershipTransferred",
      "type": "event"
    },
    {
      "anonymous": false,
      "inputs": [
        {
          "indexed": true,
          "internalType": "address",
          "name": "from",
          "type": "address"
        },
        {
          "indexed": true,
          "internalType": "address",
          "name": "to",
          "type": "address"
        },
        {
          "indexed": true,
          "internalType": "uint256",
          "name": "tokenId",
          "type": "uint256"
        }
      ],
      "name": "Transfer",
      "type": "event"
    },
    {
      "anonymous": false,
      "inputs": [
        {
          "indexed": true,
          "internalType": "address",
          "name": "implementation",
          "type": "address"
        }
      ],
      "name": "Upgraded",
      "type": "event"
    },
    {
      "inputs": [
        {
          "internalType": "address",
          "name": "to",
          "type": "address"
        },
        {
          "internalType": "uint256",
          "name": "tokenId",
          "type": "uint256"
        }
      ],
      "name": "approve",
      "outputs": [],
      "stateMutability": "nonpayable",
      "type": "function"
    },
    {
      "inputs": [
        {
          "internalType": "address",
          "name": "owner",
          "type": "address"
        }
      ],
      "name": "balanceOf",
      "outputs": [
        {
          "internalType": "uint256",
          "name": "",
          "type": "uint256"
        }
      ],
      "stateMutability": "view",
      "type": "function"
    },
    {
      "inputs": [],
      "name": "baseURI",
      "outputs": [
        {
          "internalType": "string",
          "name": "",
          "type": "string"
        }
      ],
      "stateMutability": "view",
      "type": "function"
    },
    {
      "inputs": [
        {
          "internalType": "uint256",
          "name": "",
          "type": "uint256"
        }
      ],
      "name": "cascadeUrls",
      "outputs": [
        {
          "internalType": "string",
          "name": "",
          "type": "string"
        }
      ],
      "stateMutability": "view",
      "type": "function"
    },
    {
      "inputs": [
        {
          "internalType": "uint256",
          "name": "tokenId",
          "type": "uint256"
        }
      ],
      "name": "getApproved",
      "outputs": [
        {
          "internalType": "address",
          "name": "",
          "type": "address"
        }
      ],
      "stateMutability": "view",
      "type": "function"
    },
    {
      "inputs": [
        {
          "internalType": "uint256",
          "name": "_tokenId",
          "type": "uint256"
        }
      ],
      "name": "getCascadeUrl",
      "outputs": [
        {
          "internalType": "string",
          "name": "",
          "type": "string"
        }
      ],
      "stateMutability": "view",
      "type": "function"
    },
    {
      "inputs": [
        {
          "internalType": "address",
          "name": "",
          "type": "address"
        }
      ],
      "name": "hasUserMintedAddress",
      "outputs": [
        {
          "internalType": "uint8",
          "name": "",
          "type": "uint8"
        }
      ],
      "stateMutability": "view",
      "type": "function"
    },
    {
      "inputs": [
        {
          "internalType": "uint256",
          "name": "",
          "type": "uint256"
        }
      ],
      "name": "hasUserMintedSmartmint",
      "outputs": [
        {
          "internalType": "uint8",
          "name": "",
          "type": "uint8"
        }
      ],
      "stateMutability": "view",
      "type": "function"
    },
    {
      "inputs": [
        {
          "internalType": "string[]",
          "name": "_cascadeUrls",
          "type": "string[]"
        }
      ],
      "name": "initCascadeUrls",
      "outputs": [],
      "stateMutability": "nonpayable",
      "type": "function"
    },
    {
      "inputs": [
        {
          "internalType": "string",
          "name": "_name",
          "type": "string"
        },
        {
          "internalType": "string",
          "name": "_symbol",
          "type": "string"
        },
        {
          "internalType": "uint32",
          "name": "_maxSupply",
          "type": "uint32"
        },
        {
          "internalType": "uint8",
          "name": "_maxPurchaseableCount",
          "type": "uint8"
        },
        {
          "internalType": "uint256",
          "name": "_royaltiesPercentage",
          "type": "uint256"
        },
        {
          "internalType": "string",
          "name": "_baseTokenURI",
          "type": "string"
        },
        {
          "internalType": "address",
          "name": "_primaryWallet",
          "type": "address"
        }
      ],
      "name": "initialize",
      "outputs": [],
      "stateMutability": "nonpayable",
      "type": "function"
    },
    {
      "inputs": [
        {
          "internalType": "address",
          "name": "owner",
          "type": "address"
        },
        {
          "internalType": "address",
          "name": "operator",
          "type": "address"
        }
      ],
      "name": "isApprovedForAll",
      "outputs": [
        {
          "internalType": "bool",
          "name": "",
          "type": "bool"
        }
      ],
      "stateMutability": "view",
      "type": "function"
    },
    {
      "inputs": [
        {
          "internalType": "address",
          "name": "",
          "type": "address"
        }
      ],
      "name": "isFanClubAddress",
      "outputs": [
        {
          "internalType": "bool",
          "name": "",
          "type": "bool"
        }
      ],
      "stateMutability": "view",
      "type": "function"
    },
    {
      "inputs": [
        {
          "internalType": "uint256",
          "name": "",
          "type": "uint256"
        }
      ],
      "name": "isFanClubSmartmint",
      "outputs": [
        {
          "internalType": "bool",
          "name": "",
          "type": "bool"
        }
      ],
      "stateMutability": "view",
      "type": "function"
    },
    {
      "inputs": [
        {
          "internalType": "address",
          "name": "",
          "type": "address"
        }
      ],
      "name": "isWhitelistedAddress",
      "outputs": [
        {
          "internalType": "bool",
          "name": "",
          "type": "bool"
        }
      ],
      "stateMutability": "view",
      "type": "function"
    },
    {
      "inputs": [
        {
          "internalType": "uint256",
          "name": "",
          "type": "uint256"
        }
      ],
      "name": "isWhitelistedSmartmint",
      "outputs": [
        {
          "internalType": "bool",
          "name": "",
          "type": "bool"
        }
      ],
      "stateMutability": "view",
      "type": "function"
    },
    {
      "inputs": [],
      "name": "maxPurchaseableCount",
      "outputs": [
        {
          "internalType": "uint8",
          "name": "",
          "type": "uint8"
        }
      ],
      "stateMutability": "view",
      "type": "function"
    },
    {
      "inputs": [],
      "name": "maxSupply",
      "outputs": [
        {
          "internalType": "uint32",
          "name": "",
          "type": "uint32"
        }
      ],
      "stateMutability": "view",
      "type": "function"
    },
    {
      "inputs": [
        {
          "internalType": "uint256",
          "name": "_userId",
          "type": "uint256"
        },
        {
          "internalType": "address",
          "name": "_to",
          "type": "address"
        },
        {
          "internalType": "uint256",
          "name": "_quantity",
          "type": "uint256"
        }
      ],
      "name": "mint",
      "outputs": [],
      "stateMutability": "payable",
      "type": "function"
    },
    {
      "inputs": [],
      "name": "name",
      "outputs": [
        {
          "internalType": "string",
          "name": "",
          "type": "string"
        }
      ],
      "stateMutability": "view",
      "type": "function"
    },
    {
      "inputs": [],
      "name": "owner",
      "outputs": [
        {
          "internalType": "address",
          "name": "",
          "type": "address"
        }
      ],
      "stateMutability": "view",
      "type": "function"
    },
    {
      "inputs": [
        {
          "internalType": "uint256",
          "name": "tokenId",
          "type": "uint256"
        }
      ],
      "name": "ownerOf",
      "outputs": [
        {
          "internalType": "address",
          "name": "",
          "type": "address"
        }
      ],
      "stateMutability": "view",
      "type": "function"
    },
    {
      "inputs": [],
      "name": "price",
      "outputs": [
        {
          "internalType": "uint256",
          "name": "",
          "type": "uint256"
        }
      ],
      "stateMutability": "view",
      "type": "function"
    },
    {
      "inputs": [],
      "name": "primaryWallet",
      "outputs": [
        {
          "internalType": "address",
          "name": "",
          "type": "address"
        }
      ],
      "stateMutability": "view",
      "type": "function"
    },
    {
      "inputs": [],
      "name": "proxiableUUID",
      "outputs": [
        {
          "internalType": "bytes32",
          "name": "",
          "type": "bytes32"
        }
      ],
      "stateMutability": "view",
      "type": "function"
    },
    {
      "inputs": [],
      "name": "renounceOwnership",
      "outputs": [],
      "stateMutability": "nonpayable",
      "type": "function"
    },
    {
      "inputs": [],
      "name": "royaltiesPercentage",
      "outputs": [
        {
          "internalType": "uint256",
          "name": "",
          "type": "uint256"
        }
      ],
      "stateMutability": "view",
      "type": "function"
    },
    {
      "inputs": [
        {
          "internalType": "uint256",
          "name": "_tokenId",
          "type": "uint256"
        },
        {
          "internalType": "uint256",
          "name": "_salePrice",
          "type": "uint256"
        }
      ],
      "name": "royaltyInfo",
      "outputs": [
        {
          "internalType": "address",
          "name": "",
          "type": "address"
        },
        {
          "internalType": "uint256",
          "name": "",
          "type": "uint256"
        }
      ],
      "stateMutability": "view",
      "type": "function"
    },
    {
      "inputs": [
        {
          "internalType": "address",
          "name": "from",
          "type": "address"
        },
        {
          "internalType": "address",
          "name": "to",
          "type": "address"
        },
        {
          "internalType": "uint256",
          "name": "tokenId",
          "type": "uint256"
        }
      ],
      "name": "safeTransferFrom",
      "outputs": [],
      "stateMutability": "nonpayable",
      "type": "function"
    },
    {
      "inputs": [
        {
          "internalType": "address",
          "name": "from",
          "type": "address"
        },
        {
          "internalType": "address",
          "name": "to",
          "type": "address"
        },
        {
          "internalType": "uint256",
          "name": "tokenId",
          "type": "uint256"
        },
        {
          "internalType": "bytes",
          "name": "data",
          "type": "bytes"
        }
      ],
      "name": "safeTransferFrom",
      "outputs": [],
      "stateMutability": "nonpayable",
      "type": "function"
    },
    {
      "inputs": [
        {
          "internalType": "address",
          "name": "operator",
          "type": "address"
        },
        {
          "internalType": "bool",
          "name": "approved",
          "type": "bool"
        }
      ],
      "name": "setApprovalForAll",
      "outputs": [],
      "stateMutability": "nonpayable",
      "type": "function"
    },
    {
      "inputs": [
        {
          "internalType": "string",
          "name": "_uri",
          "type": "string"
        }
      ],
      "name": "setBaseURI",
      "outputs": [],
      "stateMutability": "nonpayable",
      "type": "function"
    },
    {
      "inputs": [
        {
          "internalType": "address[]",
          "name": "_fanClubAddresses",
          "type": "address[]"
        }
      ],
      "name": "setFanClubAddresses",
      "outputs": [],
      "stateMutability": "nonpayable",
      "type": "function"
    },
    {
      "inputs": [
        {
          "internalType": "uint256[]",
          "name": "_fanClubUsers",
          "type": "uint256[]"
        }
      ],
      "name": "setFanClubSmartmintUsers",
      "outputs": [],
      "stateMutability": "nonpayable",
      "type": "function"
    },
    {
      "inputs": [
        {
          "internalType": "uint8",
          "name": "_maxPurchaseableCount",
          "type": "uint8"
        }
      ],
      "name": "setMaxPurchaseableCount",
      "outputs": [],
      "stateMutability": "nonpayable",
      "type": "function"
    },
    {
      "inputs": [
        {
          "internalType": "uint8",
          "name": "_maxSupply",
          "type": "uint8"
        }
      ],
      "name": "setMaxSupply",
      "outputs": [],
      "stateMutability": "nonpayable",
      "type": "function"
    },
    {
      "inputs": [
        {
          "internalType": "uint256",
          "name": "_price",
          "type": "uint256"
        }
      ],
      "name": "setPrice",
      "outputs": [],
      "stateMutability": "nonpayable",
      "type": "function"
    },
    {
      "inputs": [
        {
          "internalType": "address",
          "name": "_primaryWallet",
          "type": "address"
        }
      ],
      "name": "setPrimaryWallet",
      "outputs": [],
      "stateMutability": "nonpayable",
      "type": "function"
    },
    {
      "inputs": [
        {
          "internalType": "uint8",
          "name": "_stage",
          "type": "uint8"
        },
        {
          "internalType": "uint256",
          "name": "_price",
          "type": "uint256"
        }
      ],
      "name": "setStage",
      "outputs": [],
      "stateMutability": "nonpayable",
      "type": "function"
    },
    {
      "inputs": [
        {
          "internalType": "address[]",
          "name": "_whiteListAddresses",
          "type": "address[]"
        }
      ],
      "name": "setWhiteListAddresses",
      "outputs": [],
      "stateMutability": "nonpayable",
      "type": "function"
    },
    {
      "inputs": [
        {
          "internalType": "uint256[]",
          "name": "_whiteListUsers",
          "type": "uint256[]"
        }
      ],
      "name": "setWhiteListSmartmintUsers",
      "outputs": [],
      "stateMutability": "nonpayable",
      "type": "function"
    },
    {
      "inputs": [],
      "name": "stage",
      "outputs": [
        {
          "internalType": "uint8",
          "name": "",
          "type": "uint8"
        }
      ],
      "stateMutability": "view",
      "type": "function"
    },
    {
      "inputs": [
        {
          "internalType": "bytes4",
          "name": "interfaceId",
          "type": "bytes4"
        }
      ],
      "name": "supportsInterface",
      "outputs": [
        {
          "internalType": "bool",
          "name": "",
          "type": "bool"
        }
      ],
      "stateMutability": "view",
      "type": "function"
    },
    {
      "inputs": [],
      "name": "symbol",
      "outputs": [
        {
          "internalType": "string",
          "name": "",
          "type": "string"
        }
      ],
      "stateMutability": "view",
      "type": "function"
    },
    {
      "inputs": [
        {
          "internalType": "uint256",
          "name": "tokenId",
          "type": "uint256"
        }
      ],
      "name": "tokenURI",
      "outputs": [
        {
          "internalType": "string",
          "name": "",
          "type": "string"
        }
      ],
      "stateMutability": "view",
      "type": "function"
    },
    {
      "inputs": [],
      "name": "totalBalance",
      "outputs": [
        {
          "internalType": "uint256",
          "name": "",
          "type": "uint256"
        }
      ],
      "stateMutability": "view",
      "type": "function"
    },
    {
      "inputs": [],
      "name": "totalSupply",
      "outputs": [
        {
          "internalType": "uint256",
          "name": "",
          "type": "uint256"
        }
      ],
      "stateMutability": "view",
      "type": "function"
    },
    {
      "inputs": [
        {
          "internalType": "address",
          "name": "from",
          "type": "address"
        },
        {
          "internalType": "address",
          "name": "to",
          "type": "address"
        },
        {
          "internalType": "uint256",
          "name": "tokenId",
          "type": "uint256"
        }
      ],
      "name": "transferFrom",
      "outputs": [],
      "stateMutability": "nonpayable",
      "type": "function"
    },
    {
      "inputs": [
        {
          "internalType": "address",
          "name": "newOwner",
          "type": "address"
        }
      ],
      "name": "transferOwnership",
      "outputs": [],
      "stateMutability": "nonpayable",
      "type": "function"
    },
    {
      "inputs": [
        {
          "internalType": "address",
          "name": "newImplementation",
          "type": "address"
        }
      ],
      "name": "upgradeTo",
      "outputs": [],
      "stateMutability": "nonpayable",
      "type": "function"
    },
    {
      "inputs": [
        {
          "internalType": "address",
          "name": "newImplementation",
          "type": "address"
        },
        {
          "internalType": "bytes",
          "name": "data",
          "type": "bytes"
        }
      ],
      "name": "upgradeToAndCall",
      "outputs": [],
      "stateMutability": "payable",
      "type": "function"
    },
    {
      "inputs": [],
      "name": "withdraw",
      "outputs": [],
      "stateMutability": "nonpayable",
      "type": "function"
    }
  ],
  "bytecode": "0x60a06040523060601b60805234801561001757600080fd5b5060805160601c613bd361005260003960008181610d7201528181610db201528181610f8b01528181610fcb01526110430152613bd36000f3fe6080604052600436106102445760003560e01c806301ffc9a71461024957806302ed7e731461027e57806306fdde03146102a0578063081812fc146102c2578063095ea7b3146102fa5780630aaa8cb71461031a57806310cfe80f1461033a57806318160ddd1461035a57806323b872dd1461037d5780632a55205a1461039d5780633659cfe6146103dc5780633ccfd60b146103fc57806342842e0e14610411578063486c96fa146104315780634f1ef286146104525780635213a0b71461046557806352d1902d1461049657806355f804b3146104ab578063591c2a80146104cb5780635fae0576146104fc5780636160b1a91461052d5780636352211e1461054d5780636c0360eb1461056d57806370a0823114610582578063715018a6146105a2578063836a1040146105b75780638bdc3ade146105ca5780638cbc8cd9146105ea5780638da5cb5b1461060a57806391b7f5ed1461061f57806395d89b411461063f578063964d33ef14610654578063a035b1fe14610674578063a22cb4651461068b578063a7d9f5d7146106ab578063ad7a672f146106cb578063b88d4fde146106de578063bfc52814146106fe578063c040e6b81461072f578063c87b56dd14610763578063cafa8dfe14610783578063ce7736491461079a578063d5abeb01146107ba578063d68efe49146107ed578063d6fd7a5d1461080d578063dc3e61151461082d578063df6872dd1461085e578063e985e9c51461088f578063efadda77146108af578063f2fde38b146108d1578063ff86437b146108f1575b600080fd5b34801561025557600080fd5b50610269610264366004613478565b610911565b60405190151581526020015b60405180910390f35b34801561028a57600080fd5b5061029e6102993660046133da565b610963565b005b3480156102ac57600080fd5b506102b56109e2565b604051610275919061375d565b3480156102ce57600080fd5b506102e26102dd3660046135e8565b610a74565b6040516001600160a01b039091168152602001610275565b34801561030657600080fd5b5061029e610315366004613263565b610a9b565b34801561032657600080fd5b5061029e6103353660046133da565b610bb6565b34801561034657600080fd5b5061029e61035536600461332a565b610c31565b34801561036657600080fd5b5061036f610c9e565b604051908152602001610275565b34801561038957600080fd5b5061029e61039836600461313e565b610cb5565b3480156103a957600080fd5b506103bd6103b8366004613624565b610ce6565b604080516001600160a01b039093168352602083019190915201610275565b3480156103e857600080fd5b5061029e6103f73660046130f2565b610d67565b34801561040857600080fd5b5061029e610e30565b34801561041d57600080fd5b5061029e61042c36600461313e565b610f65565b34801561043d57600080fd5b50610161546102e2906001600160a01b031681565b61029e610460366004613218565b610f80565b34801561047157600080fd5b506102696104803660046130f2565b6101686020526000908152604090205460ff1681565b3480156104a257600080fd5b5061036f611036565b3480156104b757600080fd5b5061029e6104c63660046134b0565b6110e4565b3480156104d757600080fd5b506102696104e63660046135e8565b6101656020526000908152604090205460ff1681565b34801561050857600080fd5b506102696105173660046130f2565b6101696020526000908152604090205460ff1681565b34801561053957600080fd5b5061029e610548366004613645565b611137565b34801561055957600080fd5b506102e26105683660046135e8565b6111b8565b34801561057957600080fd5b506102b56111ec565b34801561058e57600080fd5b5061036f61059d3660046130f2565b61127b565b3480156105ae57600080fd5b5061029e611301565b61029e6105c5366004613600565b611313565b3480156105d657600080fd5b5061029e6105e536600461328c565b611820565b3480156105f657600080fd5b5061029e61060536600461351c565b61189f565b34801561061657600080fd5b506102e2611b38565b34801561062b57600080fd5b5061029e61063a3660046135e8565b611b47565b34801561064b57600080fd5b506102b5611b55565b34801561066057600080fd5b5061029e61066f36600461328c565b611b64565b34801561068057600080fd5b5061036f6101605481565b34801561069757600080fd5b5061029e6106a63660046131de565b611be3565b3480156106b757600080fd5b506102b56106c63660046135e8565b611bee565b3480156106d757600080fd5b504761036f565b3480156106ea57600080fd5b5061029e6106f9366004613179565b611d03565b34801561070a57600080fd5b506102696107193660046135e8565b6101666020526000908152604090205460ff1681565b34801561073b57600080fd5b506101635461075190600160201b900460ff1681565b60405160ff9091168152602001610275565b34801561076f57600080fd5b506102b561077e3660046135e8565b611d3b565b34801561078f57600080fd5b5061036f6101625481565b3480156107a657600080fd5b5061029e6107b536600461365f565b611da2565b3480156107c657600080fd5b50610163546107d89063ffffffff1681565b60405163ffffffff9091168152602001610275565b3480156107f957600080fd5b506102b56108083660046135e8565b611e3e565b34801561081957600080fd5b5061029e6108283660046130f2565b611e6a565b34801561083957600080fd5b506107516108483660046135e8565b6101676020526000908152604090205460ff1681565b34801561086a57600080fd5b506107516108793660046130f2565b61016a6020526000908152604090205460ff1681565b34801561089b57600080fd5b506102696108aa36600461310c565b611eeb565b3480156108bb57600080fd5b506101635461075190600160281b900460ff1681565b3480156108dd57600080fd5b5061029e6108ec3660046130f2565b611f19565b3480156108fd57600080fd5b5061029e61090c366004613645565b611f8f565b60006001600160e01b031982166380ac58cd60e01b148061094257506001600160e01b03198216635b5e139f60e01b145b8061095d57506301ffc9a760e01b6001600160e01b03198316145b92915050565b61096b611fb8565b60005b81518110156109de576001610166600084848151811061099e57634e487b7160e01b600052603260045260246000fd5b6020026020010151815260200190815260200160002060006101000a81548160ff02191690831515021790555080806109d690613ac2565b91505061096e565b5050565b606060c980546109f190613a87565b80601f0160208091040260200160405190810160405280929190818152602001828054610a1d90613a87565b8015610a6a5780601f10610a3f57610100808354040283529160200191610a6a565b820191906000526020600020905b815481529060010190602001808311610a4d57829003601f168201915b5050505050905090565b6000610a7f82612017565b50600090815260cd60205260409020546001600160a01b031690565b6000610aa6826111b8565b9050806001600160a01b0316836001600160a01b03161415610b195760405162461bcd60e51b815260206004820152602160248201527f4552433732313a20617070726f76616c20746f2063757272656e74206f776e656044820152603960f91b60648201526084015b60405180910390fd5b336001600160a01b0382161480610b355750610b358133611eeb565b610ba75760405162461bcd60e51b815260206004820152603d60248201527f4552433732313a20617070726f76652063616c6c6572206973206e6f7420746f60448201527f6b656e206f776e6572206f7220617070726f76656420666f7220616c6c0000006064820152608401610b10565b610bb1838361203c565b505050565b610bbe611fb8565b60005b81518110156109de5760016101656000848481518110610bf157634e487b7160e01b600052603260045260246000fd5b6020026020010151815260200190815260200160002060006101000a81548160ff0219169083151502179055508080610c2990613ac2565b915050610bc1565b610c39611fb8565b61016354815163ffffffff90911614610c8a5760405162461bcd60e51b8152602060048201526013602482015272496e76616c696420636173636164652069647360681b6044820152606401610b10565b80516109de90610164906020840190612e9e565b6000600161016b54610cb09190613a44565b905090565b610cbf33826120aa565b610cdb5760405162461bcd60e51b8152600401610b1090613770565b610bb1838383612109565b600080610cf284612268565b610d315760405162461bcd60e51b815260206004820152601060248201526f125b9d985b1a59081d1bdad95b881a5960821b6044820152606401610b10565b60006127106101625485610d459190613a25565b610d4f9190613a05565b610161546001600160a01b0316969095509350505050565b306001600160a01b037f0000000000000000000000000000000000000000000000000000000000000000161415610db05760405162461bcd60e51b8152600401610b109061388a565b7f00000000000000000000000000000000000000000000000000000000000000006001600160a01b0316610de2612285565b6001600160a01b031614610e085760405162461bcd60e51b8152600401610b10906138c4565b610e11816122a1565b60408051600080825260208201909252610e2d918391906122a9565b50565b610e38611fb8565b610e40612423565b600047118015610e5b5750610161546001600160a01b031615155b610ec85760405162461bcd60e51b815260206004820152603860248201527f4e6f2066756e647320746f2077697468647261772c206f7220696e76616c6964604482015277103bb0b63632ba1030b2323932b9b9903a379039b2b7321760411b6064820152608401610b10565b610161546040516001600160a01b03909116904780156108fc02916000818181858888f19350505050158015610f02573d6000803e3d6000fd5b503380610f4d5760405162461bcd60e51b8152602060048201526019602482015278496e76616c696420726563697069656e74206164647265737360381b6044820152606401610b10565b610f57814761247f565b50610f63600161012d55565b565b610bb183838360405180602001604052806000815250611d03565b306001600160a01b037f0000000000000000000000000000000000000000000000000000000000000000161415610fc95760405162461bcd60e51b8152600401610b109061388a565b7f00000000000000000000000000000000000000000000000000000000000000006001600160a01b0316610ffb612285565b6001600160a01b0316146110215760405162461bcd60e51b8152600401610b10906138c4565b61102a826122a1565b6109de828260016122a9565b6000306001600160a01b037f000000000000000000000000000000000000000000000000000000000000000016146110d15760405162461bcd60e51b815260206004820152603860248201527f555550535570677261646561626c653a206d757374206e6f742062652063616c6044820152771b1959081d1a1c9bdd59da0819195b1959d85d1958d85b1b60421b6064820152608401610b10565b50600080516020613b6083398151915290565b6110ec611fb8565b6110f961015f8383612efb565b507f5411e8ebf1636d9e83d5fc4900bf80cbac82e8790da2a4c94db4895e889eedf6828260405161112b92919061372e565b60405180910390a15050565b61113f611fb8565b61016b548160ff161161119f5760405162461bcd60e51b815260206004820152602260248201527f496e76616c6964206d6178537570706c79207570646174696e672072657175656044820152611cdd60f21b6064820152608401610b10565b610163805463ffffffff191660ff909216919091179055565b6000806111c483612595565b90506001600160a01b03811661095d5760405162461bcd60e51b8152600401610b10906138fe565b61015f80546111fa90613a87565b80601f016020809104026020016040519081016040528092919081815260200182805461122690613a87565b80156112735780601f1061124857610100808354040283529160200191611273565b820191906000526020600020905b81548152906001019060200180831161125657829003601f168201915b505050505081565b60006001600160a01b0382166112e55760405162461bcd60e51b815260206004820152602960248201527f4552433732313a2061646472657373207a65726f206973206e6f7420612076616044820152683634b21037bbb732b960b91b6064820152608401610b10565b506001600160a01b0316600090815260cc602052604090205490565b611309611fb8565b610f6360006125b0565b61131b612423565b61016354600160281b900460ff1681118015906113385750600081115b6113a35760405162461bcd60e51b815260206004820152603660248201527f55736572732063616e206f6e6c79206d696e742066726f6d206f6e6520746f20604482015275746872656520746f6b656e7320617420612074696d6560501b6064820152608401610b10565b61016354600160201b900460ff166113f75760405162461bcd60e51b8152602060048201526017602482015276139bdd081cdd185c9d1959081b5a5b9d1a5b99c81e595d604a1b6044820152606401610b10565b61016354831590600160201b900460ff16600114156114cb576000848152610165602052604090205460ff168061144657508080156114465750336000908152610168602052604090205460ff165b6114c65760405162461bcd60e51b815260206004820152604560248201527f596f7520617265206e6f7420612066616e20636c756220757365722c20796f7560448201527f2061726520756e61626c6520746f206d696e7420647572696e67207468697320606482015264737461676560d81b608482015260a401610b10565b611593565b61016354600160201b900460ff1660021415611593576000848152610166602052604090205460ff168061151757508080156115175750336000908152610169602052604090205460ff165b6115935760405162461bcd60e51b815260206004820152604160248201527f596f7520617265206e6f742061204643465320757365722c20796f752061726560448201527f20756e61626c6520746f206d696e7420647572696e67207468697320737461676064820152606560f81b608482015260a401610b10565b806115cc57610163546000858152610167602052604090205460ff600160281b9092048216916115c5918591166139ce565b11156115fd565b6101635433600090815261016a602052604090205460ff600160281b9092048216916115fa918591166139ce565b11155b61165b5760405162461bcd60e51b815260206004820152602960248201527f596f7520617265206e6f742061626c6520746f2070757263686173652074686f604482015268736520746f6b656e7360b81b6064820152608401610b10565b816101605461166a9190613a25565b34146116ad5760405162461bcd60e51b8152602060048201526012602482015271496e73756666696369656e7420707269636560701b6044820152606401610b10565b60005b8281101561181357610163546116cd9063ffffffff1660016139e6565b63ffffffff1661016b541061171a5760405162461bcd60e51b81526020600482015260136024820152724e6f20617661696c61626c6520746f6b656e7360681b6044820152606401610b10565b6117273361016b54612602565b811561176a5733600090815261016a60205260408120805460ff169161174c83613add565b91906101000a81548160ff021916908360ff160217905550506117a2565b600085815261016760205260408120805460ff169161178883613add565b91906101000a81548160ff021916908360ff160217905550505b61016b5460405133917f25b428dfde728ccfaddad7e29e4ac23c24ed7fd1a6e3e3f91894a9a073f5dfff916117df91898252602082015260400190565b60405180910390a2600161016b60008282546117fb91906139ce565b9091555081905061180b81613ac2565b9150506116b0565b5050610bb1600161012d55565b611828611fb8565b60005b81518110156109de576001610169600084848151811061185b57634e487b7160e01b600052603260045260246000fd5b6020908102919091018101516001600160a01b03168252810191909152604001600020805460ff19169115159190911790558061189781613ac2565b91505061182b565b600054610100900460ff16158080156118bf5750600054600160ff909116105b806118e057506118ce3061261c565b1580156118e0575060005460ff166001145b6119435760405162461bcd60e51b815260206004820152602e60248201527f496e697469616c697a61626c653a20636f6e747261637420697320616c72656160448201526d191e481a5b9a5d1a585b1a5e995960921b6064820152608401610b10565b6000805460ff191660011790558015611966576000805461ff0019166101001790555b61016c5460ff16156119b05760405162461bcd60e51b8152602060048201526013602482015272105b1c9958591e481a5b9a5d1a585b1a5e9959606a1b6044820152606401610b10565b6001600160a01b038216611a185760405162461bcd60e51b815260206004820152602960248201527f496e76616c6964207072696d6172792c206f722070617374656c2077616c6c6560448201526874206164647265737360b81b6064820152608401610b10565b6127108410611a5d5760405162461bcd60e51b8152602060048201526011602482015270496e76616c696420726f79616c7469657360781b6044820152606401610b10565b611a67888861262b565b611a6f61265c565b8251611a839061015f906020860190612f7b565b5061016180546001600160a01b0319166001600160a01b0384161790556101638054610162869055600161016b81905561016c805460ff1916909117905563ffffffff881665ff00ffffffff1990911617600160281b60ff8816021760ff60201b191690558015611b2e576000805461ff0019169055604051600181527f7f26b83ff96e1f2b6a682f133852f6798a09c465da95921460cefb38474024989060200160405180910390a15b5050505050505050565b60fb546001600160a01b031690565b611b4f611fb8565b61016055565b606060ca80546109f190613a87565b611b6c611fb8565b60005b81518110156109de5760016101686000848481518110611b9f57634e487b7160e01b600052603260045260246000fd5b6020908102919091018101516001600160a01b03168252810191909152604001600020805460ff191691151591909117905580611bdb81613ac2565b915050611b6f565b6109de33838361268b565b6060600082118015611c0857506101635463ffffffff1682105b611c475760405162461bcd60e51b815260206004820152601060248201526f125b9d985b1a59081d1bdad95b88125960821b6044820152606401610b10565b6101648281548110611c6957634e487b7160e01b600052603260045260246000fd5b906000526020600020018054611c7e90613a87565b80601f0160208091040260200160405190810160405280929190818152602001828054611caa90613a87565b8015611cf75780601f10611ccc57610100808354040283529160200191611cf7565b820191906000526020600020905b815481529060010190602001808311611cda57829003601f168201915b50505050509050919050565b611d0d33836120aa565b611d295760405162461bcd60e51b8152600401610b1090613770565b611d3584848484612756565b50505050565b6060611d4682612017565b6000611d50612789565b90506000815111611d705760405180602001604052806000815250611d9b565b80611d7a84612799565b604051602001611d8b9291906136c2565b6040516020818303038152906040525b9392505050565b611daa611fb8565b60048260ff16108015611dc0575060008260ff16115b8015611ddc57506101635460ff600160201b9091048116908316115b611e185760405162461bcd60e51b815260206004820152600d60248201526c496e76616c696420737461676560981b6044820152606401610b10565b610163805460ff909316600160201b0260ff60201b199093169290921790915561016055565b6101648181548110611e4f57600080fd5b9060005260206000200160009150905080546111fa90613a87565b611e72611fb8565b6001600160a01b038116611ec85760405162461bcd60e51b815260206004820152601e60248201527f496e76616c6964207072696d6172792077616c6c6574206164647265737300006044820152606401610b10565b61016180546001600160a01b0319166001600160a01b0392909216919091179055565b6001600160a01b03918216600090815260ce6020908152604080832093909416825291909152205460ff1690565b611f21611fb8565b6001600160a01b038116611f865760405162461bcd60e51b815260206004820152602660248201527f4f776e61626c653a206e6577206f776e657220697320746865207a65726f206160448201526564647265737360d01b6064820152608401610b10565b610e2d816125b0565b611f97611fb8565b610163805460ff909216600160281b0260ff60281b19909216919091179055565b33611fc1611b38565b6001600160a01b031614610f635760405162461bcd60e51b815260206004820181905260248201527f4f776e61626c653a2063616c6c6572206973206e6f7420746865206f776e65726044820152606401610b10565b61202081612268565b610e2d5760405162461bcd60e51b8152600401610b10906138fe565b600081815260cd6020526040902080546001600160a01b0319166001600160a01b0384169081179091558190612071826111b8565b6001600160a01b03167f8c5be1e5ebec7d5bd14f71427d1e84f3dd0314c0f7b2291e5b200ac8c7c3b92560405160405180910390a45050565b6000806120b6836111b8565b9050806001600160a01b0316846001600160a01b031614806120dd57506120dd8185611eeb565b806121015750836001600160a01b03166120f684610a74565b6001600160a01b0316145b949350505050565b826001600160a01b031661211c826111b8565b6001600160a01b0316146121425760405162461bcd60e51b8152600401610b109061380f565b6001600160a01b0382166121a45760405162461bcd60e51b8152602060048201526024808201527f4552433732313a207472616e7366657220746f20746865207a65726f206164646044820152637265737360e01b6064820152608401610b10565b6121b18383836001612843565b826001600160a01b03166121c4826111b8565b6001600160a01b0316146121ea5760405162461bcd60e51b8152600401610b109061380f565b600081815260cd6020908152604080832080546001600160a01b03199081169091556001600160a01b0387811680865260cc855283862080546000190190559087168086528386208054600101905586865260cb9094528285208054909216841790915590518493600080516020613ba783398151915291a4505050565b60008061227483612595565b6001600160a01b0316141592915050565b600080516020613b60833981519152546001600160a01b031690565b610e2d611fb8565b7f4910fdfa16fed3260ed0e7147f7cc6da11a60208b5b9406d12a635614ffd91435460ff16156122dc57610bb1836128cb565b826001600160a01b03166352d1902d6040518163ffffffff1660e01b815260040160206040518083038186803b15801561231557600080fd5b505afa925050508015612345575060408051601f3d908101601f1916820190925261234291810190613460565b60015b6123a85760405162461bcd60e51b815260206004820152602e60248201527f45524331393637557067726164653a206e657720696d706c656d656e7461746960448201526d6f6e206973206e6f74205555505360901b6064820152608401610b10565b600080516020613b6083398151915281146124175760405162461bcd60e51b815260206004820152602960248201527f45524331393637557067726164653a20756e737570706f727465642070726f786044820152681a58589b195555525160ba1b6064820152608401610b10565b50610bb1838383612965565b600261012d5414156124775760405162461bcd60e51b815260206004820152601f60248201527f5265656e7472616e637947756172643a207265656e7472616e742063616c6c006044820152606401610b10565b600261012d55565b804710156124cf5760405162461bcd60e51b815260206004820152601d60248201527f416464726573733a20696e73756666696369656e742062616c616e63650000006044820152606401610b10565b6000826001600160a01b03168260405160006040518083038185875af1925050503d806000811461251c576040519150601f19603f3d011682016040523d82523d6000602084013e612521565b606091505b5050905080610bb15760405162461bcd60e51b815260206004820152603a60248201527f416464726573733a20756e61626c6520746f2073656e642076616c75652c20726044820152791958da5c1a595b9d081b585e481a185d99481c995d995c9d195960321b6064820152608401610b10565b600090815260cb60205260409020546001600160a01b031690565b60fb80546001600160a01b038381166001600160a01b0319831681179093556040519116919082907f8be0079c531659141344cd1fd0a4f28419497f9722a3daafe3b4186f6b6457e090600090a35050565b6109de82826040518060200160405280600081525061298a565b6001600160a01b03163b151590565b600054610100900460ff166126525760405162461bcd60e51b8152600401610b1090613930565b6109de82826129bd565b600054610100900460ff166126835760405162461bcd60e51b8152600401610b1090613930565b610f63612a0b565b816001600160a01b0316836001600160a01b031614156126e95760405162461bcd60e51b815260206004820152601960248201527822a9219b99189d1030b8383937bb32903a379031b0b63632b960391b6044820152606401610b10565b6001600160a01b03838116600081815260ce6020908152604080832094871680845294825291829020805460ff191686151590811790915591519182527f17307eab39ab6107e8899845ad3d59bd9653f200f220920489ca2b5937696c31910160405180910390a3505050565b612761848484612109565b61276d84848484612a3b565b611d355760405162461bcd60e51b8152600401610b10906137bd565b606061015f80546109f190613a87565b606060006127a683612b4f565b60010190506000816001600160401b038111156127d357634e487b7160e01b600052604160045260246000fd5b6040519080825280601f01601f1916602001820160405280156127fd576020820181803683370190505b5090508181016020015b600019016f181899199a1a9b1b9c1cb0b131b232b360811b600a86061a8153600a85049450846128365761283b565b612807565b509392505050565b6001811115611d35576001600160a01b03841615612889576001600160a01b038416600090815260cc602052604081208054839290612883908490613a44565b90915550505b6001600160a01b03831615611d35576001600160a01b038316600090815260cc6020526040812080548392906128c09084906139ce565b909155505050505050565b6128d48161261c565b6129365760405162461bcd60e51b815260206004820152602d60248201527f455243313936373a206e657720696d706c656d656e746174696f6e206973206e60448201526c1bdd08184818dbdb9d1c9858dd609a1b6064820152608401610b10565b600080516020613b6083398151915280546001600160a01b0319166001600160a01b0392909216919091179055565b61296e83612c25565b60008251118061297b5750805b15610bb157611d358383612c65565b6129948383612d57565b6129a16000848484612a3b565b610bb15760405162461bcd60e51b8152600401610b10906137bd565b600054610100900460ff166129e45760405162461bcd60e51b8152600401610b1090613930565b81516129f79060c9906020850190612f7b565b508051610bb19060ca906020840190612f7b565b600054610100900460ff16612a325760405162461bcd60e51b8152600401610b1090613930565b610f63336125b0565b6000612a4f846001600160a01b031661261c565b15612b4457604051630a85bd0160e11b81526001600160a01b0385169063150b7a0290612a869033908990889088906004016136f1565b602060405180830381600087803b158015612aa057600080fd5b505af1925050508015612ad0575060408051601f3d908101601f19168201909252612acd91810190613494565b60015b612b2a573d808015612afe576040519150601f19603f3d011682016040523d82523d6000602084013e612b03565b606091505b508051612b225760405162461bcd60e51b8152600401610b10906137bd565b805181602001fd5b6001600160e01b031916630a85bd0160e11b149050612101565b506001949350505050565b60008072184f03e93ff9f4daa797ed6e38ed64bf6a1f0160401b8310612b8e5772184f03e93ff9f4daa797ed6e38ed64bf6a1f0160401b830492506040015b6904ee2d6d415b85acef8160201b8310612bb8576904ee2d6d415b85acef8160201b830492506020015b662386f26fc100008310612bd657662386f26fc10000830492506010015b6305f5e1008310612bee576305f5e100830492506008015b6127108310612c0257612710830492506004015b60648310612c14576064830492506002015b600a831061095d5760010192915050565b612c2e816128cb565b6040516001600160a01b038216907fbc7cd75a20ee27fd9adebab32041f755214dbc6bffa90cc0225b39da2e5c2d3b90600090a250565b6060612c708361261c565b612ccb5760405162461bcd60e51b815260206004820152602660248201527f416464726573733a2064656c65676174652063616c6c20746f206e6f6e2d636f6044820152651b9d1c9858dd60d21b6064820152608401610b10565b600080846001600160a01b031684604051612ce691906136a6565b600060405180830381855af49150503d8060008114612d21576040519150601f19603f3d011682016040523d82523d6000602084013e612d26565b606091505b5091509150612d4e8282604051806060016040528060278152602001613b8060279139612e60565b95945050505050565b6001600160a01b038216612dad5760405162461bcd60e51b815260206004820181905260248201527f4552433732313a206d696e7420746f20746865207a65726f20616464726573736044820152606401610b10565b612db681612268565b15612dd35760405162461bcd60e51b8152600401610b1090613854565b612de1600083836001612843565b612dea81612268565b15612e075760405162461bcd60e51b8152600401610b1090613854565b6001600160a01b038216600081815260cc602090815260408083208054600101905584835260cb90915280822080546001600160a01b031916841790555183929190600080516020613ba7833981519152908290a45050565b60608315612e6f575081611d9b565b611d9b8383815115612e845781518083602001fd5b8060405162461bcd60e51b8152600401610b10919061375d565b828054828255906000526020600020908101928215612eeb579160200282015b82811115612eeb5782518051612edb918491602090910190612f7b565b5091602001919060010190612ebe565b50612ef7929150612fef565b5090565b828054612f0790613a87565b90600052602060002090601f016020900481019282612f295760008555612f6f565b82601f10612f425782800160ff19823516178555612f6f565b82800160010185558215612f6f579182015b82811115612f6f578235825591602001919060010190612f54565b50612ef792915061300c565b828054612f8790613a87565b90600052602060002090601f016020900481019282612fa95760008555612f6f565b82601f10612fc257805160ff1916838001178555612f6f565b82800160010185558215612f6f579182015b82811115612f6f578251825591602001919060010190612fd4565b80821115612ef75760006130038282613021565b50600101612fef565b5b80821115612ef7576000815560010161300d565b50805461302d90613a87565b6000825580601f1061303d575050565b601f016020900490600052602060002090810190610e2d919061300c565b80356001600160a01b038116811461307257600080fd5b919050565b600082601f830112613087578081fd5b81356001600160401b038111156130a0576130a0613b13565b6130b3601f8201601f191660200161397b565b8181528460208386010111156130c7578283fd5b816020850160208301379081016020019190915292915050565b803560ff8116811461307257600080fd5b600060208284031215613103578081fd5b611d9b8261305b565b6000806040838503121561311e578081fd5b6131278361305b565b91506131356020840161305b565b90509250929050565b600080600060608486031215613152578081fd5b61315b8461305b565b92506131696020850161305b565b9150604084013590509250925092565b6000806000806080858703121561318e578081fd5b6131978561305b565b93506131a56020860161305b565b92506040850135915060608501356001600160401b038111156131c6578182fd5b6131d287828801613077565b91505092959194509250565b600080604083850312156131f0578182fd5b6131f98361305b565b91506020830135801515811461320d578182fd5b809150509250929050565b6000806040838503121561322a578182fd5b6132338361305b565b915060208301356001600160401b0381111561324d578182fd5b61325985828601613077565b9150509250929050565b60008060408385031215613275578182fd5b61327e8361305b565b946020939093013593505050565b6000602080838503121561329e578182fd5b82356001600160401b038111156132b3578283fd5b8301601f810185136132c3578283fd5b80356132d66132d1826139ab565b61397b565b80828252848201915084840188868560051b87010111156132f5578687fd5b8694505b8385101561331e5761330a8161305b565b8352600194909401939185019185016132f9565b50979650505050505050565b6000602080838503121561333c578182fd5b82356001600160401b0380821115613352578384fd5b818501915085601f830112613365578384fd5b81356133736132d1826139ab565b80828252858201915085850189878560051b8801011115613392578788fd5b875b848110156133cb578135868111156133aa57898afd5b6133b88c8a838b0101613077565b8552509287019290870190600101613394565b50909998505050505050505050565b600060208083850312156133ec578182fd5b82356001600160401b03811115613401578283fd5b8301601f81018513613411578283fd5b803561341f6132d1826139ab565b80828252848201915084840188868560051b870101111561343e578687fd5b8694505b8385101561331e578035835260019490940193918501918501613442565b600060208284031215613471578081fd5b5051919050565b600060208284031215613489578081fd5b8135611d9b81613b29565b6000602082840312156134a5578081fd5b8151611d9b81613b29565b600080602083850312156134c2578182fd5b82356001600160401b03808211156134d8578384fd5b818501915085601f8301126134eb578384fd5b8135818111156134f9578485fd5b86602082850101111561350a578485fd5b60209290920196919550909350505050565b600080600080600080600060e0888a031215613536578485fd5b87356001600160401b038082111561354c578687fd5b6135588b838c01613077565b985060208a013591508082111561356d578687fd5b6135798b838c01613077565b975060408a0135915063ffffffff82168214613593578687fd5b8196506135a260608b016130e1565b955060808a0135945060a08a01359150808211156135be578384fd5b506135cb8a828b01613077565b9250506135da60c0890161305b565b905092959891949750929550565b6000602082840312156135f9578081fd5b5035919050565b600080600060608486031215613614578081fd5b833592506131696020850161305b565b60008060408385031215613636578182fd5b50508035926020909101359150565b600060208284031215613656578081fd5b611d9b826130e1565b60008060408385031215613671578182fd5b61327e836130e1565b60008151808452613692816020860160208601613a5b565b601f01601f19169290920160200192915050565b600082516136b8818460208701613a5b565b9190910192915050565b600083516136d4818460208801613a5b565b8351908301906136e8818360208801613a5b565b01949350505050565b6001600160a01b03858116825284166020820152604081018390526080606082018190526000906137249083018461367a565b9695505050505050565b60208152816020820152818360408301376000818301604090810191909152601f909201601f19160101919050565b602081526000611d9b602083018461367a565b6020808252602d908201527f4552433732313a2063616c6c6572206973206e6f7420746f6b656e206f776e6560408201526c1c881bdc88185c1c1c9bdd9959609a1b606082015260800190565b60208082526032908201527f4552433732313a207472616e7366657220746f206e6f6e20455243373231526560408201527131b2b4bb32b91034b6b83632b6b2b73a32b960711b606082015260800190565b60208082526025908201527f4552433732313a207472616e736665722066726f6d20696e636f72726563742060408201526437bbb732b960d91b606082015260800190565b6020808252601c908201527b115490cdcc8c4e881d1bdad95b88185b1c9958591e481b5a5b9d195960221b604082015260600190565b6020808252602c90820152600080516020613b4083398151915260408201526b19195b1959d85d1958d85b1b60a21b606082015260800190565b6020808252602c90820152600080516020613b4083398151915260408201526b6163746976652070726f787960a01b606082015260800190565b602080825260189082015277115490cdcc8c4e881a5b9d985b1a59081d1bdad95b88125160421b604082015260600190565b6020808252602b908201527f496e697469616c697a61626c653a20636f6e7472616374206973206e6f74206960408201526a6e697469616c697a696e6760a81b606082015260800190565b604051601f8201601f191681016001600160401b03811182821017156139a3576139a3613b13565b604052919050565b60006001600160401b038211156139c4576139c4613b13565b5060051b60200190565b600082198211156139e1576139e1613afd565b500190565b600063ffffffff8083168185168083038211156136e8576136e8613afd565b600082613a2057634e487b7160e01b81526012600452602481fd5b500490565b6000816000190483118215151615613a3f57613a3f613afd565b500290565b600082821015613a5657613a56613afd565b500390565b60005b83811015613a76578181015183820152602001613a5e565b83811115611d355750506000910152565b600181811c90821680613a9b57607f821691505b60208210811415613abc57634e487b7160e01b600052602260045260246000fd5b50919050565b6000600019821415613ad657613ad6613afd565b5060010190565b600060ff821660ff811415613af457613af4613afd565b60010192915050565b634e487b7160e01b600052601160045260246000fd5b634e487b7160e01b600052604160045260246000fd5b6001600160e01b031981168114610e2d57600080fdfe46756e6374696f6e206d7573742062652063616c6c6564207468726f75676820360894a13ba1a3210667c828492db98dca3e2076cc3735a920a3ca505d382bbc416464726573733a206c6f772d6c6576656c2064656c65676174652063616c6c206661696c6564ddf252ad1be2c89b69c2b068fc378daa952ba7f163c4a11628f55a4df523b3efa164736f6c6343000804000a",
  "linkReferences": {},
  "deployedLinkReferences": {}
}