{
  "_format": "hh-sol-artifact-1",
  "contractName": "BobbyOrrDrop",
  "sourceName": "contracts/drop/BobbyOrrDrop.sol",
  "abi": [
    {
      "anonymous": false,
      "inputs": [
        {
          "indexed": false,
          "internalType": "address",
          "name": "previousAdmin",
          "type": "address"
        },
        {
          "indexed": false,
          "internalType": "address",
          "name": "newAdmin",
          "type": "address"
        }
      ],
      "name": "AdminChanged",
      "type": "event"
    },
    {
      "anonymous": false,
      "inputs": [
        {
          "indexed": true,
          "internalType": "address",
          "name": "owner",
          "type": "address"
        },
        {
          "indexed": true,
          "internalType": "address",
          "name": "approved",
          "type": "address"
        },
        {
          "indexed": true,
          "internalType": "uint256",
          "name": "tokenId",
          "type": "uint256"
        }
      ],
      "name": "Approval",
      "type": "event"
    },
    {
      "anonymous": false,
      "inputs": [
        {
          "indexed": true,
          "internalType": "address",
          "name": "owner",
          "type": "address"
        },
        {
          "indexed": true,
          "internalType": "address",
          "name": "operator",
          "type": "address"
        },
        {
          "indexed": false,
          "internalType": "bool",
          "name": "approved",
          "type": "bool"
        }
      ],
      "name": "ApprovalForAll",
      "type": "event"
    },
    {
      "anonymous": false,
      "inputs": [
        {
          "indexed": false,
          "internalType": "string",
          "name": "_uri",
          "type": "string"
        }
      ],
      "name": "BaseURIChanged",
      "type": "event"
    },
    {
      "anonymous": false,
      "inputs": [
        {
          "indexed": true,
          "internalType": "address",
          "name": "beacon",
          "type": "address"
        }
      ],
      "name": "BeaconUpgraded",
      "type": "event"
    },
    {
      "anonymous": false,
      "inputs": [
        {
          "indexed": false,
          "internalType": "uint8",
          "name": "version",
          "type": "uint8"
        }
      ],
      "name": "Initialized",
      "type": "event"
    },
    {
      "anonymous": false,
      "inputs": [
        {
          "indexed": true,
          "internalType": "address",
          "name": "_to",
          "type": "address"
        },
        {
          "indexed": false,
          "internalType": "uint256",
          "name": "_userId",
          "type": "uint256"
        },
        {
          "indexed": false,
          "internalType": "uint256",
          "name": "_tokenId",
          "type": "uint256"
        }
      ],
      "name": "Minted",
      "type": "event"
    },
    {
      "anonymous": false,
      "inputs": [
        {
          "indexed": true,
          "internalType": "address",
          "name": "previousOwner",
          "type": "address"
        },
        {
          "indexed": true,
          "internalType": "address",
          "name": "newOwner",
          "type": "address"
        }
      ],
      "name": "OwnershipTransferred",
      "type": "event"
    },
    {
      "anonymous": false,
      "inputs": [
        {
          "indexed": true,
          "internalType": "address",
          "name": "from",
          "type": "address"
        },
        {
          "indexed": true,
          "internalType": "address",
          "name": "to",
          "type": "address"
        },
        {
          "indexed": true,
          "internalType": "uint256",
          "name": "tokenId",
          "type": "uint256"
        }
      ],
      "name": "Transfer",
      "type": "event"
    },
    {
      "anonymous": false,
      "inputs": [
        {
          "indexed": true,
          "internalType": "address",
          "name": "implementation",
          "type": "address"
        }
      ],
      "name": "Upgraded",
      "type": "event"
    },
    {
      "inputs": [
        {
          "internalType": "uint256",
          "name": "",
          "type": "uint256"
        }
      ],
      "name": "allowListFanClubUsers",
      "outputs": [
        {
          "internalType": "uint256",
          "name": "",
          "type": "uint256"
        }
      ],
      "stateMutability": "view",
      "type": "function"
    },
    {
      "inputs": [
        {
          "internalType": "uint256",
          "name": "",
          "type": "uint256"
        }
      ],
      "name": "allowListWhiteListUsers",
      "outputs": [
        {
          "internalType": "uint256",
          "name": "",
          "type": "uint256"
        }
      ],
      "stateMutability": "view",
      "type": "function"
    },
    {
      "inputs": [
        {
          "internalType": "address",
          "name": "to",
          "type": "address"
        },
        {
          "internalType": "uint256",
          "name": "tokenId",
          "type": "uint256"
        }
      ],
      "name": "approve",
      "outputs": [],
      "stateMutability": "nonpayable",
      "type": "function"
    },
    {
      "inputs": [
        {
          "internalType": "address",
          "name": "owner",
          "type": "address"
        }
      ],
      "name": "balanceOf",
      "outputs": [
        {
          "internalType": "uint256",
          "name": "",
          "type": "uint256"
        }
      ],
      "stateMutability": "view",
      "type": "function"
    },
    {
      "inputs": [],
      "name": "baseURI",
      "outputs": [
        {
          "internalType": "string",
          "name": "",
          "type": "string"
        }
      ],
      "stateMutability": "view",
      "type": "function"
    },
    {
      "inputs": [
        {
          "internalType": "uint256",
          "name": "tokenId",
          "type": "uint256"
        }
      ],
      "name": "getApproved",
      "outputs": [
        {
          "internalType": "address",
          "name": "",
          "type": "address"
        }
      ],
      "stateMutability": "view",
      "type": "function"
    },
    {
      "inputs": [
        {
          "internalType": "uint256",
          "name": "",
          "type": "uint256"
        }
      ],
      "name": "hasUserMinted",
      "outputs": [
        {
          "internalType": "bool",
          "name": "",
          "type": "bool"
        }
      ],
      "stateMutability": "view",
      "type": "function"
    },
    {
      "inputs": [
        {
          "internalType": "string",
          "name": "_name",
          "type": "string"
        },
        {
          "internalType": "string",
          "name": "_symbol",
          "type": "string"
        },
        {
          "internalType": "uint256",
          "name": "_maxSupply",
          "type": "uint256"
        },
        {
          "internalType": "string",
          "name": "_baseTokenURI",
          "type": "string"
        },
        {
          "internalType": "address",
          "name": "_primaryWallet",
          "type": "address"
        }
      ],
      "name": "initialize",
      "outputs": [],
      "stateMutability": "nonpayable",
      "type": "function"
    },
    {
      "inputs": [
        {
          "internalType": "address",
          "name": "owner",
          "type": "address"
        },
        {
          "internalType": "address",
          "name": "operator",
          "type": "address"
        }
      ],
      "name": "isApprovedForAll",
      "outputs": [
        {
          "internalType": "bool",
          "name": "",
          "type": "bool"
        }
      ],
      "stateMutability": "view",
      "type": "function"
    },
    {
      "inputs": [
        {
          "internalType": "uint256",
          "name": "",
          "type": "uint256"
        }
      ],
      "name": "isFanClubUser",
      "outputs": [
        {
          "internalType": "bool",
          "name": "",
          "type": "bool"
        }
      ],
      "stateMutability": "view",
      "type": "function"
    },
    {
      "inputs": [
        {
          "internalType": "uint256",
          "name": "",
          "type": "uint256"
        }
      ],
      "name": "isWhitelisted",
      "outputs": [
        {
          "internalType": "bool",
          "name": "",
          "type": "bool"
        }
      ],
      "stateMutability": "view",
      "type": "function"
    },
    {
      "inputs": [],
      "name": "maxSupply",
      "outputs": [
        {
          "internalType": "uint256",
          "name": "",
          "type": "uint256"
        }
      ],
      "stateMutability": "view",
      "type": "function"
    },
    {
      "inputs": [
        {
          "internalType": "uint256",
          "name": "_userId",
          "type": "uint256"
        }
      ],
      "name": "mint",
      "outputs": [],
      "stateMutability": "payable",
      "type": "function"
    },
    {
      "inputs": [],
      "name": "name",
      "outputs": [
        {
          "internalType": "string",
          "name": "",
          "type": "string"
        }
      ],
      "stateMutability": "view",
      "type": "function"
    },
    {
      "inputs": [],
      "name": "owner",
      "outputs": [
        {
          "internalType": "address",
          "name": "",
          "type": "address"
        }
      ],
      "stateMutability": "view",
      "type": "function"
    },
    {
      "inputs": [
        {
          "internalType": "uint256",
          "name": "tokenId",
          "type": "uint256"
        }
      ],
      "name": "ownerOf",
      "outputs": [
        {
          "internalType": "address",
          "name": "",
          "type": "address"
        }
      ],
      "stateMutability": "view",
      "type": "function"
    },
    {
      "inputs": [],
      "name": "price",
      "outputs": [
        {
          "internalType": "uint256",
          "name": "",
          "type": "uint256"
        }
      ],
      "stateMutability": "view",
      "type": "function"
    },
    {
      "inputs": [],
      "name": "primaryWallet",
      "outputs": [
        {
          "internalType": "address",
          "name": "",
          "type": "address"
        }
      ],
      "stateMutability": "view",
      "type": "function"
    },
    {
      "inputs": [],
      "name": "proxiableUUID",
      "outputs": [
        {
          "internalType": "bytes32",
          "name": "",
          "type": "bytes32"
        }
      ],
      "stateMutability": "view",
      "type": "function"
    },
    {
      "inputs": [],
      "name": "renounceOwnership",
      "outputs": [],
      "stateMutability": "nonpayable",
      "type": "function"
    },
    {
      "inputs": [
        {
          "internalType": "address",
          "name": "from",
          "type": "address"
        },
        {
          "internalType": "address",
          "name": "to",
          "type": "address"
        },
        {
          "internalType": "uint256",
          "name": "tokenId",
          "type": "uint256"
        }
      ],
      "name": "safeTransferFrom",
      "outputs": [],
      "stateMutability": "nonpayable",
      "type": "function"
    },
    {
      "inputs": [
        {
          "internalType": "address",
          "name": "from",
          "type": "address"
        },
        {
          "internalType": "address",
          "name": "to",
          "type": "address"
        },
        {
          "internalType": "uint256",
          "name": "tokenId",
          "type": "uint256"
        },
        {
          "internalType": "bytes",
          "name": "data",
          "type": "bytes"
        }
      ],
      "name": "safeTransferFrom",
      "outputs": [],
      "stateMutability": "nonpayable",
      "type": "function"
    },
    {
      "inputs": [
        {
          "internalType": "uint256[]",
          "name": "_allowListFanClubUsers",
          "type": "uint256[]"
        }
      ],
      "name": "setAllowListFanClubUsers",
      "outputs": [],
      "stateMutability": "nonpayable",
      "type": "function"
    },
    {
      "inputs": [
        {
          "internalType": "uint256[]",
          "name": "_allowListWhiteListUsers",
          "type": "uint256[]"
        }
      ],
      "name": "setAllowListWhiteListUsers",
      "outputs": [],
      "stateMutability": "nonpayable",
      "type": "function"
    },
    {
      "inputs": [
        {
          "internalType": "address",
          "name": "operator",
          "type": "address"
        },
        {
          "internalType": "bool",
          "name": "approved",
          "type": "bool"
        }
      ],
      "name": "setApprovalForAll",
      "outputs": [],
      "stateMutability": "nonpayable",
      "type": "function"
    },
    {
      "inputs": [
        {
          "internalType": "string",
          "name": "_uri",
          "type": "string"
        }
      ],
      "name": "setBaseURI",
      "outputs": [],
      "stateMutability": "nonpayable",
      "type": "function"
    },
    {
      "inputs": [
        {
          "internalType": "uint256",
          "name": "_maxSupply",
          "type": "uint256"
        }
      ],
      "name": "setMaxSupply",
      "outputs": [],
      "stateMutability": "nonpayable",
      "type": "function"
    },
    {
      "inputs": [
        {
          "internalType": "uint256",
          "name": "_price",
          "type": "uint256"
        }
      ],
      "name": "setPrice",
      "outputs": [],
      "stateMutability": "nonpayable",
      "type": "function"
    },
    {
      "inputs": [
        {
          "internalType": "address",
          "name": "_primaryWallet",
          "type": "address"
        }
      ],
      "name": "setPrimaryWallet",
      "outputs": [],
      "stateMutability": "nonpayable",
      "type": "function"
    },
    {
      "inputs": [
        {
          "internalType": "uint256",
          "name": "_stage",
          "type": "uint256"
        },
        {
          "internalType": "uint256",
          "name": "_price",
          "type": "uint256"
        }
      ],
      "name": "setStage",
      "outputs": [],
      "stateMutability": "nonpayable",
      "type": "function"
    },
    {
      "inputs": [],
      "name": "stage",
      "outputs": [
        {
          "internalType": "uint256",
          "name": "",
          "type": "uint256"
        }
      ],
      "stateMutability": "view",
      "type": "function"
    },
    {
      "inputs": [
        {
          "internalType": "bytes4",
          "name": "interfaceId",
          "type": "bytes4"
        }
      ],
      "name": "supportsInterface",
      "outputs": [
        {
          "internalType": "bool",
          "name": "",
          "type": "bool"
        }
      ],
      "stateMutability": "view",
      "type": "function"
    },
    {
      "inputs": [],
      "name": "symbol",
      "outputs": [
        {
          "internalType": "string",
          "name": "",
          "type": "string"
        }
      ],
      "stateMutability": "view",
      "type": "function"
    },
    {
      "inputs": [
        {
          "internalType": "uint256",
          "name": "tokenId",
          "type": "uint256"
        }
      ],
      "name": "tokenURI",
      "outputs": [
        {
          "internalType": "string",
          "name": "",
          "type": "string"
        }
      ],
      "stateMutability": "view",
      "type": "function"
    },
    {
      "inputs": [],
      "name": "totalBalance",
      "outputs": [
        {
          "internalType": "uint256",
          "name": "",
          "type": "uint256"
        }
      ],
      "stateMutability": "view",
      "type": "function"
    },
    {
      "inputs": [],
      "name": "totalSupply",
      "outputs": [
        {
          "internalType": "uint256",
          "name": "",
          "type": "uint256"
        }
      ],
      "stateMutability": "view",
      "type": "function"
    },
    {
      "inputs": [
        {
          "internalType": "address",
          "name": "from",
          "type": "address"
        },
        {
          "internalType": "address",
          "name": "to",
          "type": "address"
        },
        {
          "internalType": "uint256",
          "name": "tokenId",
          "type": "uint256"
        }
      ],
      "name": "transferFrom",
      "outputs": [],
      "stateMutability": "nonpayable",
      "type": "function"
    },
    {
      "inputs": [
        {
          "internalType": "address",
          "name": "newOwner",
          "type": "address"
        }
      ],
      "name": "transferOwnership",
      "outputs": [],
      "stateMutability": "nonpayable",
      "type": "function"
    },
    {
      "inputs": [
        {
          "internalType": "address",
          "name": "newImplementation",
          "type": "address"
        }
      ],
      "name": "upgradeTo",
      "outputs": [],
      "stateMutability": "nonpayable",
      "type": "function"
    },
    {
      "inputs": [
        {
          "internalType": "address",
          "name": "newImplementation",
          "type": "address"
        },
        {
          "internalType": "bytes",
          "name": "data",
          "type": "bytes"
        }
      ],
      "name": "upgradeToAndCall",
      "outputs": [],
      "stateMutability": "payable",
      "type": "function"
    },
    {
      "inputs": [],
      "name": "withdraw",
      "outputs": [],
      "stateMutability": "nonpayable",
      "type": "function"
    }
  ],
  "bytecode": "0x60a06040523060601b60805234801561001757600080fd5b5060805160601c61309e6100526000396000818161097a015281816109ba01528181610b9301528181610bd30152610c4f015261309e6000f3fe6080604052600436106101d65760003560e01c806301ffc9a7146101db57806306fdde0314610210578063081812fc14610232578063095ea7b31461026a57806316891f9c1461028c57806318160ddd146102ba57806323b872dd146102cf5780633659cfe6146102ef5780633ccfd60b1461030f57806342842e0e14610324578063486c96fa146103445780634f1ef2861461036557806352d1902d1461037857806355f7bde41461038d57806355f804b3146103ad57806356716e20146103cd5780636352211e146103fe5780636c0360eb1461041e5780636f8b44b01461043357806370a0823114610453578063715018a614610473578063751b02c21461048857806383455d06146104b957806387f094d5146104d95780638da5cb5b1461050a57806391b7f5ed1461051f57806395d89b411461053f57806399776e7714610554578063a035b1fe14610574578063a0712d681461058b578063a22cb4651461059e578063ad7a672f146105be578063b88d4fde146105d1578063c040e6b8146105f1578063c87b56dd14610608578063d4d6bcf314610628578063d5abeb0114610648578063d6fd7a5d1461065f578063e985e9c51461067f578063f2fde38b1461069f578063fc4ab5b5146106bf575b600080fd5b3480156101e757600080fd5b506101fb6101f6366004612a6b565b6106df565b60405190151581526020015b60405180910390f35b34801561021c57600080fd5b50610225610731565b6040516102079190612cc9565b34801561023e57600080fd5b5061025261024d366004612bad565b6107c3565b6040516001600160a01b039091168152602001610207565b34801561027657600080fd5b5061028a610285366004612983565b6107ea565b005b34801561029857600080fd5b506102ac6102a7366004612bad565b610905565b604051908152602001610207565b3480156102c657600080fd5b506102ac610927565b3480156102db57600080fd5b5061028a6102ea36600461285e565b61093e565b3480156102fb57600080fd5b5061028a61030a366004612812565b61096f565b34801561031b57600080fd5b5061028a610a38565b34801561033057600080fd5b5061028a61033f36600461285e565b610b6d565b34801561035057600080fd5b5061016154610252906001600160a01b031681565b61028a610373366004612938565b610b88565b34801561038457600080fd5b506102ac610c42565b34801561039957600080fd5b5061028a6103a8366004612bc5565b610cf0565b3480156103b957600080fd5b5061028a6103c8366004612aa3565b610d5f565b3480156103d957600080fd5b506101fb6103e8366004612bad565b6101666020526000908152604090205460ff1681565b34801561040a57600080fd5b50610252610419366004612bad565b610db2565b34801561042a57600080fd5b50610225610de6565b34801561043f57600080fd5b5061028a61044e366004612bad565b610e75565b34801561045f57600080fd5b506102ac61046e366004612812565b610ee0565b34801561047f57600080fd5b5061028a610f66565b34801561049457600080fd5b506101fb6104a3366004612bad565b6101656020526000908152604090205460ff1681565b3480156104c557600080fd5b5061028a6104d4366004612b0f565b610f78565b3480156104e557600080fd5b506101fb6104f4366004612bad565b6101646020526000908152604090205460ff1681565b34801561051657600080fd5b506102526111a4565b34801561052b57600080fd5b5061028a61053a366004612bad565b6111b3565b34801561054b57600080fd5b506102256111c1565b34801561056057600080fd5b506102ac61056f366004612bad565b6111d0565b34801561058057600080fd5b506102ac6101605481565b61028a610599366004612bad565b6111e1565b3480156105aa57600080fd5b5061028a6105b93660046128fe565b6114d4565b3480156105ca57600080fd5b50476102ac565b3480156105dd57600080fd5b5061028a6105ec366004612899565b6114df565b3480156105fd57600080fd5b506102ac6101635481565b34801561061457600080fd5b50610225610623366004612bad565b611517565b34801561063457600080fd5b5061028a6106433660046129ac565b61157e565b34801561065457600080fd5b506102ac6101625481565b34801561066b57600080fd5b5061028a61067a366004612812565b6115f9565b34801561068b57600080fd5b506101fb61069a36600461282c565b61167a565b3480156106ab57600080fd5b5061028a6106ba366004612812565b6116a8565b3480156106cb57600080fd5b5061028a6106da3660046129ac565b61171e565b60006001600160e01b031982166380ac58cd60e01b148061071057506001600160e01b03198216635b5e139f60e01b145b8061072b57506301ffc9a760e01b6001600160e01b03198316145b92915050565b606060c9805461074090612f72565b80601f016020809104026020016040519081016040528092919081815260200182805461076c90612f72565b80156107b95780601f1061078e576101008083540402835291602001916107b9565b820191906000526020600020905b81548152906001019060200180831161079c57829003601f168201915b5050505050905090565b60006107ce82611799565b50600090815260cd60205260409020546001600160a01b031690565b60006107f582610db2565b9050806001600160a01b0316836001600160a01b031614156108685760405162461bcd60e51b815260206004820152602160248201527f4552433732313a20617070726f76616c20746f2063757272656e74206f776e656044820152603960f91b60648201526084015b60405180910390fd5b336001600160a01b03821614806108845750610884813361167a565b6108f65760405162461bcd60e51b815260206004820152603d60248201527f4552433732313a20617070726f76652063616c6c6572206973206e6f7420746f60448201527f6b656e206f776e6572206f7220617070726f76656420666f7220616c6c000000606482015260840161085f565b61090083836117be565b505050565b610167818154811061091657600080fd5b600091825260209091200154905081565b60006001610169546109399190612f2f565b905090565b610948338261182c565b6109645760405162461bcd60e51b815260040161085f90612cdc565b61090083838361188b565b306001600160a01b037f00000000000000000000000000000000000000000000000000000000000000001614156109b85760405162461bcd60e51b815260040161085f90612df6565b7f00000000000000000000000000000000000000000000000000000000000000006001600160a01b03166109ea6119ea565b6001600160a01b031614610a105760405162461bcd60e51b815260040161085f90612e30565b610a1981611a06565b60408051600080825260208201909252610a3591839190611a0e565b50565b610a40611b88565b610a48611be7565b600047118015610a635750610161546001600160a01b031615155b610ad05760405162461bcd60e51b815260206004820152603860248201527f4e6f2066756e647320746f2077697468647261772c206f7220696e76616c6964604482015277103bb0b63632ba1030b2323932b9b9903a379039b2b7321760411b606482015260840161085f565b610161546040516001600160a01b03909116904780156108fc02916000818181858888f19350505050158015610b0a573d6000803e3d6000fd5b503380610b555760405162461bcd60e51b8152602060048201526019602482015278496e76616c696420726563697069656e74206164647265737360381b604482015260640161085f565b610b5f8147611c43565b50610b6b600161012d55565b565b610900838383604051806020016040528060008152506114df565b306001600160a01b037f0000000000000000000000000000000000000000000000000000000000000000161415610bd15760405162461bcd60e51b815260040161085f90612df6565b7f00000000000000000000000000000000000000000000000000000000000000006001600160a01b0316610c036119ea565b6001600160a01b031614610c295760405162461bcd60e51b815260040161085f90612e30565b610c3282611a06565b610c3e82826001611a0e565b5050565b6000306001600160a01b037f00000000000000000000000000000000000000000000000000000000000000001614610cdd5760405162461bcd60e51b815260206004820152603860248201527f555550535570677261646561626c653a206d757374206e6f742062652063616c6044820152771b1959081d1a1c9bdd59da0819195b1959d85d1958d85b1b60421b606482015260840161085f565b5060008051602061302b83398151915290565b610cf8611b88565b600482108015610d085750600082115b8015610d1657506101635482115b610d525760405162461bcd60e51b815260206004820152600d60248201526c496e76616c696420737461676560981b604482015260640161085f565b6101639190915561016055565b610d67611b88565b610d7461015f838361267f565b507f5411e8ebf1636d9e83d5fc4900bf80cbac82e8790da2a4c94db4895e889eedf68282604051610da6929190612c9a565b60405180910390a15050565b600080610dbe83611d59565b90506001600160a01b03811661072b5760405162461bcd60e51b815260040161085f90612e6a565b61015f8054610df490612f72565b80601f0160208091040260200160405190810160405280929190818152602001828054610e2090612f72565b8015610e6d5780601f10610e4257610100808354040283529160200191610e6d565b820191906000526020600020905b815481529060010190602001808311610e5057829003601f168201915b505050505081565b610e7d611b88565b610169548111610eda5760405162461bcd60e51b815260206004820152602260248201527f496e76616c6964206d6178537570706c79207570646174696e672072657175656044820152611cdd60f21b606482015260840161085f565b61016255565b60006001600160a01b038216610f4a5760405162461bcd60e51b815260206004820152602960248201527f4552433732313a2061646472657373207a65726f206973206e6f7420612076616044820152683634b21037bbb732b960b91b606482015260840161085f565b506001600160a01b0316600090815260cc602052604090205490565b610f6e611b88565b610b6b6000611d74565b600054610100900460ff1615808015610f985750600054600160ff909116105b80610fb95750610fa730611dc6565b158015610fb9575060005460ff166001145b61101c5760405162461bcd60e51b815260206004820152602e60248201527f496e697469616c697a61626c653a20636f6e747261637420697320616c72656160448201526d191e481a5b9a5d1a585b1a5e995960921b606482015260840161085f565b6000805460ff19166001179055801561103f576000805461ff0019166101001790555b61016a5460ff16156110895760405162461bcd60e51b8152602060048201526013602482015272105b1c9958591e481a5b9a5d1a585b1a5e9959606a1b604482015260640161085f565b6001600160a01b0382166110f15760405162461bcd60e51b815260206004820152602960248201527f496e76616c6964207072696d6172792c206f722070617374656c2077616c6c6560448201526874206164647265737360b81b606482015260840161085f565b6110fb8686611dd5565b611103611e06565b82516111179061015f906020860190612703565b5061016180546001600160a01b0319166001600160a01b038416179055610162849055600161016981905561016a805460ff19169091179055600061016355801561119c576000805461ff0019169055604051600181527f7f26b83ff96e1f2b6a682f133852f6798a09c465da95921460cefb38474024989060200160405180910390a15b505050505050565b60fb546001600160a01b031690565b6111bb611b88565b61016055565b606060ca805461074090612f72565b610168818154811061091657600080fd5b6111e9611be7565b600061016354116112365760405162461bcd60e51b8152602060048201526017602482015276139bdd081cdd185c9d1959081b5a5b9d1a5b99c81e595d604a1b604482015260640161085f565b61016354600114156112ba576000818152610164602052604090205460ff166112b55760405162461bcd60e51b815260206004820152602b60248201527f496e76616c6964206d696e7420726571756573742066726f6d206e6f7420666160448201526a371031b63ab1103ab9b2b960a91b606482015260840161085f565b61133c565b610163546002141561133c576000818152610165602052604090205460ff1661133c5760405162461bcd60e51b815260206004820152602e60248201527f496e76616c6964206d696e7420726571756573742066726f6d206e6f7420776860448201526d34ba32b634b9ba32b2103ab9b2b960911b606482015260840161085f565b6000818152610166602052604090205460ff16156113a85760405162461bcd60e51b8152602060048201526024808201527f5468697320757365722068617320616c7265616479206d696e7465642061207460448201526337b5b2b760e11b606482015260840161085f565b6101605434146113ef5760405162461bcd60e51b8152602060048201526012602482015271496e73756666696369656e7420707269636560701b604482015260640161085f565b610162546113fe906001612f17565b61016954106114455760405162461bcd60e51b81526020600482015260136024820152724e6f20617661696c61626c6520746f6b656e7360681b604482015260640161085f565b6114523361016954611e35565b6000818152610166602052604090819020805460ff1916600117905561016954905133917f25b428dfde728ccfaddad7e29e4ac23c24ed7fd1a6e3e3f91894a9a073f5dfff916114aa91858252602082015260400190565b60405180910390a2600161016960008282546114c69190612f17565b9091555050600161012d5550565b610c3e338383611e4f565b6114e9338361182c565b6115055760405162461bcd60e51b815260040161085f90612cdc565b61151184848484611f1a565b50505050565b606061152282611799565b600061152c611f4d565b9050600081511161154c5760405180602001604052806000815250611577565b8061155684611f5d565b604051602001611567929190612c2e565b6040516020818303038152906040525b9392505050565b611586611b88565b60005b8151811015610c3e57600161016560008484815181106115b957634e487b7160e01b600052603260045260246000fd5b6020026020010151815260200190815260200160002060006101000a81548160ff02191690831515021790555080806115f190612fad565b915050611589565b611601611b88565b6001600160a01b0381166116575760405162461bcd60e51b815260206004820152601e60248201527f496e76616c6964207072696d6172792077616c6c657420616464726573730000604482015260640161085f565b61016180546001600160a01b0319166001600160a01b0392909216919091179055565b6001600160a01b03918216600090815260ce6020908152604080832093909416825291909152205460ff1690565b6116b0611b88565b6001600160a01b0381166117155760405162461bcd60e51b815260206004820152602660248201527f4f776e61626c653a206e6577206f776e657220697320746865207a65726f206160448201526564647265737360d01b606482015260840161085f565b610a3581611d74565b611726611b88565b60005b8151811015610c3e576001610164600084848151811061175957634e487b7160e01b600052603260045260246000fd5b6020026020010151815260200190815260200160002060006101000a81548160ff021916908315150217905550808061179190612fad565b915050611729565b6117a281612007565b610a355760405162461bcd60e51b815260040161085f90612e6a565b600081815260cd6020526040902080546001600160a01b0319166001600160a01b03841690811790915581906117f382610db2565b6001600160a01b03167f8c5be1e5ebec7d5bd14f71427d1e84f3dd0314c0f7b2291e5b200ac8c7c3b92560405160405180910390a45050565b60008061183883610db2565b9050806001600160a01b0316846001600160a01b0316148061185f575061185f818561167a565b806118835750836001600160a01b0316611878846107c3565b6001600160a01b0316145b949350505050565b826001600160a01b031661189e82610db2565b6001600160a01b0316146118c45760405162461bcd60e51b815260040161085f90612d7b565b6001600160a01b0382166119265760405162461bcd60e51b8152602060048201526024808201527f4552433732313a207472616e7366657220746f20746865207a65726f206164646044820152637265737360e01b606482015260840161085f565b6119338383836001612024565b826001600160a01b031661194682610db2565b6001600160a01b03161461196c5760405162461bcd60e51b815260040161085f90612d7b565b600081815260cd6020908152604080832080546001600160a01b03199081169091556001600160a01b0387811680865260cc855283862080546000190190559087168086528386208054600101905586865260cb909452828520805490921684179091559051849360008051602061307283398151915291a4505050565b60008051602061302b833981519152546001600160a01b031690565b610a35611b88565b7f4910fdfa16fed3260ed0e7147f7cc6da11a60208b5b9406d12a635614ffd91435460ff1615611a4157610900836120ac565b826001600160a01b03166352d1902d6040518163ffffffff1660e01b815260040160206040518083038186803b158015611a7a57600080fd5b505afa925050508015611aaa575060408051601f3d908101601f19168201909252611aa791810190612a53565b60015b611b0d5760405162461bcd60e51b815260206004820152602e60248201527f45524331393637557067726164653a206e657720696d706c656d656e7461746960448201526d6f6e206973206e6f74205555505360901b606482015260840161085f565b60008051602061302b8339815191528114611b7c5760405162461bcd60e51b815260206004820152602960248201527f45524331393637557067726164653a20756e737570706f727465642070726f786044820152681a58589b195555525160ba1b606482015260840161085f565b50610900838383612146565b33611b916111a4565b6001600160a01b031614610b6b5760405162461bcd60e51b815260206004820181905260248201527f4f776e61626c653a2063616c6c6572206973206e6f7420746865206f776e6572604482015260640161085f565b600261012d541415611c3b5760405162461bcd60e51b815260206004820152601f60248201527f5265656e7472616e637947756172643a207265656e7472616e742063616c6c00604482015260640161085f565b600261012d55565b80471015611c935760405162461bcd60e51b815260206004820152601d60248201527f416464726573733a20696e73756666696369656e742062616c616e6365000000604482015260640161085f565b6000826001600160a01b03168260405160006040518083038185875af1925050503d8060008114611ce0576040519150601f19603f3d011682016040523d82523d6000602084013e611ce5565b606091505b50509050806109005760405162461bcd60e51b815260206004820152603a60248201527f416464726573733a20756e61626c6520746f2073656e642076616c75652c20726044820152791958da5c1a595b9d081b585e481a185d99481c995d995c9d195960321b606482015260840161085f565b600090815260cb60205260409020546001600160a01b031690565b60fb80546001600160a01b038381166001600160a01b0319831681179093556040519116919082907f8be0079c531659141344cd1fd0a4f28419497f9722a3daafe3b4186f6b6457e090600090a35050565b6001600160a01b03163b151590565b600054610100900460ff16611dfc5760405162461bcd60e51b815260040161085f90612e9c565b610c3e828261216b565b600054610100900460ff16611e2d5760405162461bcd60e51b815260040161085f90612e9c565b610b6b6121b9565b610c3e8282604051806020016040528060008152506121e9565b816001600160a01b0316836001600160a01b03161415611ead5760405162461bcd60e51b815260206004820152601960248201527822a9219b99189d1030b8383937bb32903a379031b0b63632b960391b604482015260640161085f565b6001600160a01b03838116600081815260ce6020908152604080832094871680845294825291829020805460ff191686151590811790915591519182527f17307eab39ab6107e8899845ad3d59bd9653f200f220920489ca2b5937696c31910160405180910390a3505050565b611f2584848461188b565b611f318484848461221c565b6115115760405162461bcd60e51b815260040161085f90612d29565b606061015f805461074090612f72565b60606000611f6a83612330565b60010190506000816001600160401b03811115611f9757634e487b7160e01b600052604160045260246000fd5b6040519080825280601f01601f191660200182016040528015611fc1576020820181803683370190505b5090508181016020015b600019016f181899199a1a9b1b9c1cb0b131b232b360811b600a86061a8153600a8504945084611ffa57611fff565b611fcb565b509392505050565b60008061201383611d59565b6001600160a01b0316141592915050565b6001811115611511576001600160a01b0384161561206a576001600160a01b038416600090815260cc602052604081208054839290612064908490612f2f565b90915550505b6001600160a01b03831615611511576001600160a01b038316600090815260cc6020526040812080548392906120a1908490612f17565b909155505050505050565b6120b581611dc6565b6121175760405162461bcd60e51b815260206004820152602d60248201527f455243313936373a206e657720696d706c656d656e746174696f6e206973206e60448201526c1bdd08184818dbdb9d1c9858dd609a1b606482015260840161085f565b60008051602061302b83398151915280546001600160a01b0319166001600160a01b0392909216919091179055565b61214f83612406565b60008251118061215c5750805b15610900576115118383612446565b600054610100900460ff166121925760405162461bcd60e51b815260040161085f90612e9c565b81516121a59060c9906020850190612703565b5080516109009060ca906020840190612703565b600054610100900460ff166121e05760405162461bcd60e51b815260040161085f90612e9c565b610b6b33611d74565b6121f38383612538565b612200600084848461221c565b6109005760405162461bcd60e51b815260040161085f90612d29565b6000612230846001600160a01b0316611dc6565b1561232557604051630a85bd0160e11b81526001600160a01b0385169063150b7a0290612267903390899088908890600401612c5d565b602060405180830381600087803b15801561228157600080fd5b505af19250505080156122b1575060408051601f3d908101601f191682019092526122ae91810190612a87565b60015b61230b573d8080156122df576040519150601f19603f3d011682016040523d82523d6000602084013e6122e4565b606091505b5080516123035760405162461bcd60e51b815260040161085f90612d29565b805181602001fd5b6001600160e01b031916630a85bd0160e11b149050611883565b506001949350505050565b60008072184f03e93ff9f4daa797ed6e38ed64bf6a1f0160401b831061236f5772184f03e93ff9f4daa797ed6e38ed64bf6a1f0160401b830492506040015b6904ee2d6d415b85acef8160201b8310612399576904ee2d6d415b85acef8160201b830492506020015b662386f26fc1000083106123b757662386f26fc10000830492506010015b6305f5e10083106123cf576305f5e100830492506008015b61271083106123e357612710830492506004015b606483106123f5576064830492506002015b600a831061072b5760010192915050565b61240f816120ac565b6040516001600160a01b038216907fbc7cd75a20ee27fd9adebab32041f755214dbc6bffa90cc0225b39da2e5c2d3b90600090a250565b606061245183611dc6565b6124ac5760405162461bcd60e51b815260206004820152602660248201527f416464726573733a2064656c65676174652063616c6c20746f206e6f6e2d636f6044820152651b9d1c9858dd60d21b606482015260840161085f565b600080846001600160a01b0316846040516124c79190612c12565b600060405180830381855af49150503d8060008114612502576040519150601f19603f3d011682016040523d82523d6000602084013e612507565b606091505b509150915061252f828260405180606001604052806027815260200161304b60279139612641565b95945050505050565b6001600160a01b03821661258e5760405162461bcd60e51b815260206004820181905260248201527f4552433732313a206d696e7420746f20746865207a65726f2061646472657373604482015260640161085f565b61259781612007565b156125b45760405162461bcd60e51b815260040161085f90612dc0565b6125c2600083836001612024565b6125cb81612007565b156125e85760405162461bcd60e51b815260040161085f90612dc0565b6001600160a01b038216600081815260cc602090815260408083208054600101905584835260cb90915280822080546001600160a01b031916841790555183929190600080516020613072833981519152908290a45050565b60608315612650575081611577565b61157783838151156126655781518083602001fd5b8060405162461bcd60e51b815260040161085f9190612cc9565b82805461268b90612f72565b90600052602060002090601f0160209004810192826126ad57600085556126f3565b82601f106126c65782800160ff198235161785556126f3565b828001600101855582156126f3579182015b828111156126f35782358255916020019190600101906126d8565b506126ff929150612777565b5090565b82805461270f90612f72565b90600052602060002090601f01602090048101928261273157600085556126f3565b82601f1061274a57805160ff19168380011785556126f3565b828001600101855582156126f3579182015b828111156126f357825182559160200191906001019061275c565b5b808211156126ff5760008155600101612778565b80356001600160a01b03811681146127a357600080fd5b919050565b600082601f8301126127b8578081fd5b81356001600160401b038111156127d1576127d1612fde565b6127e4601f8201601f1916602001612ee7565b8181528460208386010111156127f8578283fd5b816020850160208301379081016020019190915292915050565b600060208284031215612823578081fd5b6115778261278c565b6000806040838503121561283e578081fd5b6128478361278c565b91506128556020840161278c565b90509250929050565b600080600060608486031215612872578081fd5b61287b8461278c565b92506128896020850161278c565b9150604084013590509250925092565b600080600080608085870312156128ae578081fd5b6128b78561278c565b93506128c56020860161278c565b92506040850135915060608501356001600160401b038111156128e6578182fd5b6128f2878288016127a8565b91505092959194509250565b60008060408385031215612910578182fd5b6129198361278c565b91506020830135801515811461292d578182fd5b809150509250929050565b6000806040838503121561294a578182fd5b6129538361278c565b915060208301356001600160401b0381111561296d578182fd5b612979858286016127a8565b9150509250929050565b60008060408385031215612995578182fd5b61299e8361278c565b946020939093013593505050565b600060208083850312156129be578182fd5b82356001600160401b03808211156129d4578384fd5b818501915085601f8301126129e7578384fd5b8135818111156129f9576129f9612fde565b8060051b9150612a0a848301612ee7565b8181528481019084860184860187018a1015612a24578788fd5b8795505b83861015612a46578035835260019590950194918601918601612a28565b5098975050505050505050565b600060208284031215612a64578081fd5b5051919050565b600060208284031215612a7c578081fd5b813561157781612ff4565b600060208284031215612a98578081fd5b815161157781612ff4565b60008060208385031215612ab5578182fd5b82356001600160401b0380821115612acb578384fd5b818501915085601f830112612ade578384fd5b813581811115612aec578485fd5b866020828501011115612afd578485fd5b60209290920196919550909350505050565b600080600080600060a08688031215612b26578283fd5b85356001600160401b0380821115612b3c578485fd5b612b4889838a016127a8565b96506020880135915080821115612b5d578485fd5b612b6989838a016127a8565b9550604088013594506060880135915080821115612b85578283fd5b50612b92888289016127a8565b925050612ba16080870161278c565b90509295509295909350565b600060208284031215612bbe578081fd5b5035919050565b60008060408385031215612bd7578182fd5b50508035926020909101359150565b60008151808452612bfe816020860160208601612f46565b601f01601f19169290920160200192915050565b60008251612c24818460208701612f46565b9190910192915050565b60008351612c40818460208801612f46565b835190830190612c54818360208801612f46565b01949350505050565b6001600160a01b0385811682528416602082015260408101839052608060608201819052600090612c9090830184612be6565b9695505050505050565b60208152816020820152818360408301376000818301604090810191909152601f909201601f19160101919050565b6020815260006115776020830184612be6565b6020808252602d908201527f4552433732313a2063616c6c6572206973206e6f7420746f6b656e206f776e6560408201526c1c881bdc88185c1c1c9bdd9959609a1b606082015260800190565b60208082526032908201527f4552433732313a207472616e7366657220746f206e6f6e20455243373231526560408201527131b2b4bb32b91034b6b83632b6b2b73a32b960711b606082015260800190565b60208082526025908201527f4552433732313a207472616e736665722066726f6d20696e636f72726563742060408201526437bbb732b960d91b606082015260800190565b6020808252601c908201527b115490cdcc8c4e881d1bdad95b88185b1c9958591e481b5a5b9d195960221b604082015260600190565b6020808252602c9082015260008051602061300b83398151915260408201526b19195b1959d85d1958d85b1b60a21b606082015260800190565b6020808252602c9082015260008051602061300b83398151915260408201526b6163746976652070726f787960a01b606082015260800190565b602080825260189082015277115490cdcc8c4e881a5b9d985b1a59081d1bdad95b88125160421b604082015260600190565b6020808252602b908201527f496e697469616c697a61626c653a20636f6e7472616374206973206e6f74206960408201526a6e697469616c697a696e6760a81b606082015260800190565b604051601f8201601f191681016001600160401b0381118282101715612f0f57612f0f612fde565b604052919050565b60008219821115612f2a57612f2a612fc8565b500190565b600082821015612f4157612f41612fc8565b500390565b60005b83811015612f61578181015183820152602001612f49565b838111156115115750506000910152565b600181811c90821680612f8657607f821691505b60208210811415612fa757634e487b7160e01b600052602260045260246000fd5b50919050565b6000600019821415612fc157612fc1612fc8565b5060010190565b634e487b7160e01b600052601160045260246000fd5b634e487b7160e01b600052604160045260246000fd5b6001600160e01b031981168114610a3557600080fdfe46756e6374696f6e206d7573742062652063616c6c6564207468726f75676820360894a13ba1a3210667c828492db98dca3e2076cc3735a920a3ca505d382bbc416464726573733a206c6f772d6c6576656c2064656c65676174652063616c6c206661696c6564ddf252ad1be2c89b69c2b068fc378daa952ba7f163c4a11628f55a4df523b3efa164736f6c6343000804000a",
  "linkReferences": {},
  "deployedLinkReferences": {}
}